:10000000200700200D170000B54A0000C5160000AB
:10001000C5160000C5160000C5160000000000004F
:10002000000000000000000000000000611300005C
:10003000C51600000000000009130000C5160000EE
:100040004D1400004D1400004D1400004D1400002C
:100050004D1400004D1400004D1400004D1400001C
:100060004D1400004D1400004D1400004D1400000C
:100070004D1400004D1400004D1400004D140000FC
:100080004D1400004D1400004D1400004D140000EC
:100090004D1400004D1400004D1400004D140000DC
:1000A0004D1400004D1400004D1400004D140000CC
:0800B0004D1400004D14000086
:1000B80053B94AB9002908BF00281CBF4FF0FF31C7
:1000C8004FF0FF3000F06CB9ADF1080C6DE904CECB
:1000D80000F006F8DDF804E0DDE9022304B070471B
:1000E8002DE9F047089E0D4604468E46002B40F049
:1000F80082808A42174646D9B2FA82F24AB1C2F1E0
:10010800200105FA02F320FA01F1974041EA030EB3
:1001180094404FEA1748230CBEFBF8FCB9B208FB21
:100128001CEE43EA0E430CFB01F098420AD9FB1877
:100138000CF1FF3580F01681984240F21381ACF142
:10014800020C3B441B1AA4B2B3FBF8F008FB1033B3
:1001580044EA034400FB01F1A14209D93C1900F12A
:10016800FF3380F00181A14240F2FE8002383C4416
:10017800641A40EA0C4000211EB1D4400023C6E9AD
:100188000043BDE8F08702B9FFDEB2FA82F2002A26
:100198004FD1CB1B4FEA174E1FFA87F80121B3FB4B
:1001A800FEFC250C0EFB1C3345EA034508FB0CF34B
:1001B800AB4207D97D190CF1FF3002D2AB4200F2F5
:1001C800E7808446ED1AA3B2B5FBFEF00EFB10558E
:1001D80043EA054408FB00F8A04507D93C1900F19B
:1001E800FF3302D2A04500F2D7801846A4EB0804DA
:1001F80040EA0C40C0E78B4208D9002E00F0AF80DF
:100208000021C6E900050846BDE8F087B3FA83F186
:1002180000294BD1AB4202D3824200F2B780841A44
:1002280065EB030301209E46002EAAD0C6E9004EC6
:10023800A7E7C2F1200C01FA02F3974020FA0CF06C
:100248004FEA174E21FA0CFC1843BCFBFEF1050CD3
:100258000EFB11CC1FFA87F845EA0C4501FB08F3A1
:10026800AB4204FA02F409D97D1901F1FF3C80F090
:100278008B80AB4240F2888002393D44EB1A85B24C
:10028800B3FBFEF00EFB103345EA034500FB08F311
:10029800AB4207D97D1900F1FF3C71D2AB426FD94F
:1002A80002383D44EB1A40EA014178E7C1F1200CDD
:1002B8008B4022FA0CF71F4320FA0CF405FA01F3DD
:1002C8004FEA174E25FA0CF51C43230CB5FBFEF933
:1002D8001FFA87F80EFB195543EA054509FB08FA8A
:1002E800AA4502FA01F200FA01F308D97D1909F1C9
:1002F800FF3047D2AA4545D9A9F102093D44A5EBEB
:100308000A05A4B2B5FBFEF00EFB105544EA0544FD
:1003180000FB08F8A04507D93C1900F1FF352DD29C
:10032800A0452BD902383C4440EA0940A4EB080414
:10033800A0FB02894C45C6464D4619D316D05EB17E
:10034800B3EB0E0264EB050404FA0CFCCA404CEA59
:100358000202CC40C6E900240021BDE8F0873146FE
:1003680030460EE7AC46EDE6184601E74345E6D2CF
:10037800B8EB020E69EB07050138E0E72846D3E73A
:1003880060468FE78146BAE7614677E708464BE75C
:10039800ACF1020C3D4415E702383C4426E700BFA7
:1003A800704700BF38B5194803F088F968B30546A7
:1003B80081680269136843F4003313600B6840F2E4
:1003C80001621121984700281FDB01240CE0AB686B
:1003D800DB684FF400312846984784F001044FF455
:1003E8000040002103F008FF23462A69126812F42E
:1003F800003F01D084F00103002BE8D1AB681B69F2
:100408004FF4003128469847E7E738BDC85B00003D
:1004180008B50B6801330B60014B1B68984708BD92
:1004280000000020014B1860704700BF000000204A
:1004380000B583B002460B460021019101A903488B
:1004480000F0C8F803B05DF804FB00BF1904000011
:1004580010B584B00446019002910021039101A9CE
:10046800054800F0B7F8039B029A934201DA00228C
:10047800E254039804B010BD394600002DE9F0435A
:1004880083B0044608461546238B13F0080F05D1A0
:1004980003F0070600230093019369E0012909D0BE
:1004A80043F02003238385F31188BFF36F8F03B0D4
:1004B800BDE8F08343F010032383F4E7204604F0FB
:1004C80012F957E0D4F814904A466946204604F0D9
:1004D80023F900275AE023691F680621204604F003
:1004E800DBF84FF0000951E023695F6804212046DA
:1004F80004F0D2F84FF0000948E023699F6805210D
:10050800204604F0C9F84FF000093FE0002246E019
:10051800002244E043F00803238385F31188BFF3E6
:100528006F8F002944D1009B2BB14B464246694648
:10053800204604F067F917B125492046B8474FF01F
:100548002003EFF3118583F31288BFF36F8F238B9A
:1005580023F008032383238B13F0100F2ED023F0EE
:10056800100323830120268B06F0070600289AD063
:100578000228A3D0002896D00128A3D00328AAD007
:100588000428B1D00528B8D00027B946238B03F03A
:100598000708B045BAD0A268002AB9D0012211468E
:1005A800002AB7D1009A002AB4D1002FB2D1D2E7DD
:1005B8004A464146204604F077F8B4E713F0200F86
:1005C80004D023F0200323830220CCE70020CAE7CD
:1005D8003B4800002DE9F04F93B006460D46924681
:1005E800039300249AF80000002800F0D6842528F8
:1005F80008D00AF1010A2946B0470028C0F2CE8483
:100608000134EFE70023069307930B9308930993AC
:100618000A930AF101089AF80130252B01D0012725
:100628002CE00AF102088DF82330A8E19DF820306B
:1006380043F004038DF82030FFB108F101081CE0F5
:100648009DF8203043F008038DF82030F4E79DF83A
:10065800203043F010038DF82030EDE79DF820306E
:1006680043F020038DF82030E6E79DF8203043F072
:1006780040038DF82030DFE700274FB398F80030AB
:10068800203B102BF8D801A252F823F0570600009F
:100698008106000081060000650600008106000052
:1006A8008106000081060000810600008106000026
:1006B800810600008106000049060000810600004E
:1006C8003506000081060000810600007306000060
:1006D8009DF8203003F04403442B6DD0CDF81480EE
:1006E8009DF8203043F080038DF8203098F80030D2
:1006F8002A2B68D005A804F02CF9059B984512D040
:100708009DF8203043F080038DF820300990C3F322
:100718004003002860DB002213439DF8202063F388
:1007280041028DF82020059B05931B782E2B14BFC2
:10073800002301239DF8212063F341028DF8212035
:10074800002B4BD0059B5A1C05925B782A2B48D06E
:1007580005A804F0FEF80A909DF82030C3F3400382
:10076800002847DB002213439DF8202063F3410251
:100778008DF82020DDF8148098F800304C3B2E2BA3
:1007880000F2DC80DFE803F0CADADADADADADADA99
:10079800DADADADADADADADADADADADADADADADAB1
:1007A800DADADADA38DA6ADA51DADADADADADADA3C
:1007B800C0DADADADADAB6009DF820306FF3861399
:1007C8008DF820308AE79DF8213043F001038DF839
:1007D800213043460133A7E701229DE7DDF8148065
:1007E800CAE79DF8213043F004038DF8213002F167
:1007F8000108C1E70122B6E708F1010298F80130C3
:10080800682B08D09DF82130022161F3C6038DF8CA
:10081800213090462BE09DF82130012262F3C60377
:100828008DF8213008F1020821E008F1010298F85A
:1008380001306C2B08D09DF82130032161F3C603E9
:100848008DF82130904612E09DF82130042262F3A1
:10085800C6038DF8213008F1020808E09DF8213020
:10086800052262F3C6038DF8213008F1010818F853
:10087800013B8DF82330A3F14102372A00F2508161
:10088800DFE812F026014E014E014E012601260135
:1008980026014E014E014E014E014E014E014E0100
:1008A8004E014E014E014E014E014E014E014E01C8
:1008B8004E0113014E014E014E014E014E014E01F3
:1008C8004E014E0126014E01130163002601260147
:1008D80026014E0163004E014E014E014E012F01CB
:1008E80013013F014E014E013F014E0113014E011C
:1008F8004E0113019DF82130062262F3C6038DF8DC
:10090800213008F10108B2E79DF82130072262F38F
:10091800C6038DF8213008F10108A8E79DF82130B9
:10092800082262F3C6038DF8213008F101089DF80A
:10093800203043F002038DF8203098E79DF82130ED
:100948006FF3C6038DF8213091E79DF8222001212D
:1009580061F302028DF822209DF8212002F078022E
:10096800402A00F0AA80632B00F0AE809DF820306A
:10097800C3F34002174367F341038DF820309DF815
:10098800213013F0010F00F0DA80039B1A1D039247
:100998001F68002FC0F2CB809DF8213013F0040FA0
:1009A80000F0DF80039B1A1D0392D3F800B0BBF15F
:1009B800000FC0F2CD80002309930A939DF82230DE
:1009C80003F007039DF82110C1F3C301012B00F0C8
:1009D800D180022B00F01681042B00F06781032BD5
:1009E80000F07E819DF8209019F00303029340F0F7
:1009F8007D819DF82330253B532B00F23382DFE8BD
:100A080013F0810131023102310231023102310227
:100A18003102310231023102310231023102310236
:100A28003102310231023102310231023102310226
:100A38003102310231023102310231023102310216
:100A48003102310231023102310231023102310206
:100A580031023102310231023102310231023102F6
:100A68003102310231023102C70131023102310251
:100A78003102310231023102310231023102A10167
:100A8800AB013102310231023102AB0131023102D4
:100A9800310231020802C701EA01310231028F0135
:100AA8003102C70131023102C7019DF8222002211B
:100AB80061F302028DF822204EE79DF8201041F0E4
:100AC80001018DF820104EE7171E18BF01274DE7CA
:100AD8009DF82230042262F302038DF822300127A8
:100AE80044E79DF82230032262F302038DF8223096
:100AF8009DF8213003F07803402B7FF437AF0127AE
:100B080034E79DF82230032262F302038DF8223085
:100B18009DF8213013F0780F3FF428AF012725E71F
:100B28009DF8203043F001038DF820301EE79DF832
:100B3800203043F004038DF820307F422CE79DF9E4
:100B48002030002B02DB4FF0FF3725E7099F23E712
:100B58009DF821306FF341038DF821304FF0FF3BB2
:100B680029E713F0020F02D0DDF828B023E74FF091
:100B7800FF3B20E7CB1E042B04D8DFE803F00B1D56
:100B880029353500039B1A1D03921A68D317CDE93E
:100B9800062306E0039B1A1D03921A68D317CDE9B2
:100BA8000623012928D002297FF41CAFBDF918209B
:100BB800D317CDE9062315E7039B073323F0070373
:100BC80003F108020392D3E90023CDE90623E8E7FD
:100BD800039B073323F0070303F108020392D3E9C9
:100BE8000023CDE90623DCE7039B1A1D03921A684C
:100BF800D317CDE90623D4E79DF8183006930023D0
:100C08000793EFE6CB1E042B04D8DFE803F00B1F95
:100C180035414100039B1A1D03921B68069300236C
:100C280007931EE09DF82330632B07D0039B1A1D02
:100C380003921B6806930023079312E0039B1A1D77
:100C480003921B680693002307930AE0039B07336C
:100C580023F0070303F108020392D3E90023CDE947
:100C6800062301291CD002297FF4BCAEBDF8183038
:100C7800069300230793B5E6039B073323F0070386
:100C880003F108020392D3E90023CDE90623E8E73C
:100C9800039B1A1D03921B68069300230793E0E742
:100CA8009DF818300693002307939BE608290BD07C
:100CB800039B073323F0070303F108020392D3E9E8
:100CC8000023CDE906238DE6039B073323F00703B2
:100CD80003F108020392D3E90023CDE9062381E654
:100CE800039B1A1D03921B6806937BE643465246F4
:100CF8002946304603F0AAFE0028C0F24F8104447A
:100D0800C2466FE429462520B0470028C0F2468134
:100D18000134DDF808900DF1460B4FF0000AA7E00A
:100D2800DDF818A0BBF1000F08DB5946504603F068
:100D380078FF0AEB000BDDF8089099E0504603F0C5
:100D480068FFF6E7069B8DF83030DDF808900DF166
:100D5800310B0DF1300A8BE019F0080F05D119F0AD
:100D6800100904D04FF0200901E04FF02B09DDE90C
:100D78000623002A73F1000102DBCDE9062309E00E
:100D8800524263EB4303CDE906234FF02D0901E0FE
:100D9800DDF808900DF1460300930CAB08AADDE9D5
:100DA800060103F0E9FD8246BBF1000FC0F2908016
:100DB8000DF14603A3EB0A039DF820206FF386127A
:100DC8008DF820209B4540F28680ABEB0303099306
:100DD8000DF1460B4CE0069830B9DDF80890DFF8C5
:100DE800C4B1ABF1050A43E00DF1460300930CAB27
:100DF80008AA002103F0C0FD82469DF8223043F086
:100E080010038DF8223078238DF82330DDF8089010
:100E1800CAE7069A9DF82130C3F3C303072B06D807
:100E2800DFE803F0040C0E1012171C1E1460DDF826
:100E380008900DF1460B4FF0000A19E01470F6E720
:100E48001480F4E71460F2E72046E117C2E90001D4
:100E5800EDE72046E117C2E90001E8E71460E6E79C
:100E68001460E4E7DDF808900DF1460B4FF0000A36
:100E7800BAF1000F00F08E80ABEB0A02B9F1000F57
:100E880000D001329DF8221011F0100F26D0023246
:100E9800099B134411F0400F01D00A9A1344002F04
:100EA80032DDFF1A9DF8203013F0040F2CD113F017
:100EB800400F18D0B9F1000F18D029464846B0475E
:100EC80000286BDB0134DDF80890302302930FE033
:100ED8000DF1460BCCE70DF1460BC9E711F0080FF1
:100EE800D6D00132D4E72023029301E030230293C5
:100EF8003B465F1E002B07DD29460298B0470028B5
:100F08004CDB01343B46F4E7B9F1000F05D0294624
:100F18004846B047002841DB01349DF82230C3F32E
:100F28000012C3F3C003134305D029463020B0474D
:100F3800002833DB01349DF8223013F0100F06D05F
:100F480029469DF82300B047002827DB0134099B78
:100F580003F1FF39002B07DD29463020B047002870
:100F68001CDB01344B46F3E75B46524629463046C4
:100F780003F06CFD002811DB0444002F07DD29462F
:100F88002020B047002809DB0134013FF5E7C246BD
:100F9800FFF728BBC246FFF725BB204613B0BDE8C4
:100FA800F08F00BFD55B000070B584B02C4B1C7D62
:100FB80004F01F0301229A4061092A4B03EB8103C5
:100FC800D043BFF35B8F53E8001F01EA000543E8F5
:100FD8000056002EF7D1BFF35B8F0A423DD004EBD9
:100FE80044039A00204B134493E8070004AB03E939
:100FF80007001E4B63B103F092FE4FF02003EFF39E
:10100800118683F31288BFF36F8F194B1D680AE0AE
:10101800002383F31188BFF36F8FEEE72B460DB1E2
:101028002B686BB11D465DB1AA68002AF6D00C4B3F
:101038001B7D03EB430399000B4B585C9047EDE78E
:1010480086F31188BFF36F8F074804EB4404A200AE
:101058008118002383504B608B6004B070BD00BFC3
:10106800D4020020280200202C020020274D000076
:1010780020020020F0B589B00546554B1C7D04F0D0
:101088001F0301229A406109524B03EB8103BFF30E
:101098005B8F53E8001F41EA020043E80006002E78
:1010A800F7D1BFF35B8F0A4217D004EB44034A4AD7
:1010B80012F82330002B00F08880B5F1FF3F1CD1D7
:1010C80002F0E8FD4FF02003EFF3118683F3128856
:1010D800BFF36F8F414B1D682AE004EB44063E4B7B
:1010E80003EB86066F462A462146384603F0C9FCBC
:1010F80097E8070086E80700D7E704EB440302EB0C
:1011080083039B68590CD803354E364A002380194F
:101118004FF0000646EB0101FEF7CAFF0121281A2D
:1011280004F032FCCCE72B460DB12B686BB11D46A1
:101138005DB16A68002AF6D0254B1B7D03EB43039B
:10114800254911F823009047EDE786F31188BFF38E
:101158006F8F04F01F03012199406309224A02EBB3
:101168008303BFF35B8F53E8002F0A4343E8002053
:101178000028F8D1BFF35B8F04EB4403164A02EB57
:10118800830393E8070008AB03E90700174B0BB18B
:1011980003F0B2FDFFF708FF02F01AFF012004F088
:1011A8001F020123934064090A4A02EB8404DB43CB
:1011B800BFF35B8F54E8002F1A4044E80021002950
:1011C800F8D1BFF35B8F09B0F0BD0020E7E700BF9F
:1011D800D4020020380200202C0200202002002027
:1011E8003F420F0040420F0028020020014D00003E
:1011F800014910220A60704710ED00E072B64040C5
:1012080080F31188BFF36F8FBFF34F8F30BF62B683
:10121800BFF36F8F704700BF72B6494081F31188E2
:1012280020BF80F3118862B6704700BF43B2002B1D
:1012380008DB00F01F005B09012202FA00F0024AF5
:1012480042F82300704700BF00E100E04209054B67
:1012580053F8222000F01F00012303FA00F0104089
:10126800704700BF00E100E0013143B2002B08DB0A
:101278004901C9B203F1604303F5614383F80013E0
:10128800704700F00F004901C9B2014B195470476B
:1012980014ED00E030BFFFF7FDBF00BF08B5084BF5
:1012A80023F07F03074A9360BFF34F8FBFF36F8F1D
:1012B80002F0DCFA02F0FAFF00F00AFA02F0E2FAB1
:1012C8000000000000ED00E00A4A9368C3F8A80097
:1012D80009490968C3F8AC1008494B6843F08053C2
:1012E8004B60002383F31188BFF36F8F9368D3F8A3
:1012F800AC007047D4020020D45C000000ED00E090
:1013080013498A684FF030001044EFF3098C80E8E5
:10131800F01F202080F31288BFF36F8F0D4F4FF01E
:101328000066CA698A603E60D2F8A8000023C2F845
:10133800A83080F3118804B5104600F06BFABDE8B8
:10134800044002F1300090E8F01F8CF309887047E0
:10135800D402002004ED00E01EF0040F0CBFEFF3F0
:101368000880EFF30980816911F8021C0229FFD077
:1013780001B503F08FFB01BD10B4A2F120040D49A3
:1013880021F0010142F8081C42F8203C019B42F878
:101398001C3C029B42F8183C039B42F8143C4FF05B
:1013A800807342F8043C04650023C0F8A83010BCE0
:1013B800704700BF47490000164B9A68DAB110F130
:1013C800160F1AD010B4D2F89830A3F12004844232
:1013D80005D8834208D98B4208D8002100E00021B3
:1013E80031B9002010BC70470021F9E70121F7E767
:1013F800D2F89800F6E700207047D2F898308B4270
:1014080094BF0021012109B900207047D2F8980043
:10141800704700BFD402002008B50D461446084B9B
:10142800986000F0F7F9204685F30988002163B633
:1014380081F31188BFF36F8F0022002303F07FFA36
:10144800D402002001B572B60B4A906900281EBF6D
:101458000021916104F04BF962B6EFF30580A0F129
:1014680010004FEAC0000549014409C99847BDE882
:101478000140034908470000D4020020805A0000B8
:101488008D140000044B9968D869884203D0034939
:101498004FF080520A607047D402002004ED00E04B
:1014A80010B514460F4B9A6A9A6A9B6A13F4007F28
:1014B8000BD00C4B9A6B9B6A13F4004F05D021B1EB
:1014C800084A936A23F400439362064B9A6A9A6A1D
:1014D8009A6A42F47F429A62012103F0EDFA207081
:1014E800002010BD00ED00E0074B9A6A9A6A9A6ADC
:1014F8009A6A9A6A9A6A9A6A6FEA02426FEA12428A
:101508009A620020704700BF00ED00E070B5054604
:1015180016461F4B9A6A9A6A9B6A13F0020F0CD000
:101528001B4B586B9B6A13F0800F24D039B1184AB3
:10153800936A23F08003936201E06FF01500144B67
:101548009A6A9B6A13F0100F04D1114B9C6A14F02D
:10155800020404D00E4B5C6814F400640ED10C4AEB
:10156800936A43F0FF0393620121284603F0A4FA2B
:101578003070204670BD6FF01500E0E72946FFF790
:101588001BFF04460028EAD080F309880224E6E716
:1015980000ED00E010B5044600230B701B4BD86A21
:1015A80010F002002DD1DB6A002B2BDB174BDB6A16
:1015B80013F0804327D0A36933F8022C4DF6027349
:1015C8009A4210D003F1604303F626631B7863B98F
:1015D8000F4B1B787BB90F4B1B889BB293B12046EE
:1015E800FFF782FF0EE020680CE00A460121204642
:1015F800FFF78CFF06E00A4601212046FFF750FF5F
:1016080000E0002010BD1846FCE700BF00ED00E038
:1016180029ED00E02AED00E070B58AB00C46224BB7
:101628005968C1F30801002383F31188BFF36F8F52
:1016380002F07F43B3F17F4F15D102F00C03082B62
:1016480014D012F0080F0BD000260DF12702204607
:1016580003F037FA05469DF8273053B10AB070BD3C
:1016680004460126F1E700263446EEE70026344614
:10167800EBE72022214601A803F0E7FA4EB1089BC8
:10168800C3F308025AB96FEA53236FEA4323089356
:1016980005E0089B23F4FF7323F00103089301A9D5
:1016A800284603F0F3F9D9E700ED00E0024A536950
:1016B80043F010035361704700ED00E0EFF308803A
:1016C800EFF3098101B57246FFF7A6FF01BD00BF20
:1016D800002206E002F00F01094B0B442021197685
:1016E80001321D2A0ADC53B2002BF3DB03F16043FD
:1016F80003F56143202183F80013F1E7704700BF29
:10170800FCEC00E0002080F31488BFF36F8F04F036
:1017180071F900200D490860BFF34F8F0C4880F322
:10172800088800F029F8202080F3118809484FF430
:101738000261401880F30988EFF3148002210843FE
:1017480080F31488BFF36F8FFFF7A8FD94ED00E0D6
:101758002007002060080020064B1868C0F3072007
:101768000023834205DA034A9360002111610133A3
:10177800F7E7704790ED00E010B572B6002484F3E7
:101788001388FFF7E9FF234608E003F120010E4A1A
:101798004FF0FF3042F821000133DBB2072BF4D9B8
:1017A800002308E003F16001074A4FF0FF3042F8D8
:1017B80021000133DBB2072BF4D962B6BFF34F8F98
:1017C800BFF36F8F10BD00BF00E100E008B5084B04
:1017D8009B68834202D002F041FD08BDEFF3058308
:1017E800002BF8D0034A536843F080535360F2E764
:1017F800D402002000ED00E008B5034B034A0121A4
:10180800034803F0E4F908BD006000200000002050
:10181800D85B000008B5D0F89830203B0448036036
:1018280020234360034B8360012103F0D4F908BDF2
:101838003C02002000000B15064A90600B6823F05C
:101848001F03034343F01003D3608B6843F0010385
:101858001361704790ED00E010B5034C0123227826
:1018680003F08DF9207010BD1003002008B5002387
:10187800084A127803F083F910F1160F08D00346CE
:10188800072B05DC044A9360002111610133F7E757
:1018980008BD00BF1003002090ED00E0034B0522B7
:1018A8005A60BFF34F8FBFF36F8F704790ED00E022
:1018B800BFF35F8F014B00225A60704790ED00E044
:1018C80038B50E4B1D68082D15D8FFF7F1FF002419
:1018D800A5420AD9094B596804EB440293001944FC
:1018E8002046FFF7A9FF0134F2E7054B1D70FFF70B
:1018F800D5FF002038BD4FF0FF30FBE7F45B000058
:1019080010030020014B1860704700BF040000203E
:10191800C0B24FF08043C3F81C05BFF34F8F054991
:10192800CA6802F4E062044B1343CB60BFF34F8FE5
:1019380000BFFDE700ED00E00400FA0530B108B58E
:101948008001034B43F00103984708BD704700BF6F
:10195800C05B00000048704798020020034BC01A83
:101968008010034B03FB00F0704700BF58020020B3
:10197800B76DDBB638B505460C46FFF7EFFF0146F5
:101988004022034803F04DFA01462846A04738BDD7
:10199800385A000030B583B005460C46FFF7DEFF25
:1019A8000146402300932346054A064803F053FAAC
:1019B800011E01DB03B030BD2846A047FAE700BF8F
:1019C800A74E0000385A000008B510B101280DD004
:1019D80008BD0021084803F0ADF9836813F0070F2C
:1019E800F6D10021044803F00AFAF1E70121024880
:1019F80003F005FAECE700BF385A000010B54FF0C5
:101A08002003EFF3118483F31288BFF36F8F134A17
:101A1800136843F00203136013F0010F08D1002389
:101A280084F31188BFF36F8F9BB903F040FA10BDA0
:101A38004FF08043D3F80C24D3F80C3412F0010F84
:101A480001D10023ECE7FFF785FF03F0C5F9012377
:101A5800E6E70021024803F0D2F9E8E7A8020020EF
:101A6800385A000008B50A4BBFF35B8F53E8002FC4
:101A780022F0020143E800100028F7D1BFF35B8F82
:101A880012F0010F00D008BD03F01BFAFBE700BFFE
:101A9800A802002000B585B0CDF800D0CDF804D05C
:101AA80000230293012303936B46074A03F0EFF9DF
:101AB800002805DB4FF480420023684602F042F814
:101AC80005B05DF804FB00BFDF4E000070B50646A8
:101AD800002201211046FFF7C7FB0020FFF7A6FBF5
:101AE800114801F093F8114B98421AD103F023FDE5
:101AF800002403E00123AB601C44E4B2012C0ED89F
:101B08002146304603F016F905462146304603F0D3
:101B18001CF9074902F09BFE0028EBDA00E00020E0
:101B280070BD6FF00400FBE7D11900000000AD0B99
:101B3800445C000070B50546012807D14FF080438A
:101B4800D3F81C3403F00303012B58D003F0BAFD7B
:101B580028B92E4B1B78002B41D0002300E001232D
:101B68001C46002B3DD04FF02003EFF3118683F382
:101B78001288BFF36F8F24B94FF080430222C3F855
:101B880008234FF08042D2F8183403F00303D2F848
:101B9800182412F4803F2BD100221AB1012B29D02E
:101BA800012D27D0FCB13046FFF736FB4FF08043BC
:101BB800D3F81835002BE4D1154B1B68002BE0D067
:101BC800134B00221A601B6801234FF08042C2F8B1
:101BD8001835104AC2F880310F4A1360D1E7012343
:101BE800BEE70026C7E72120002102F005FBDDE75C
:101BF8000122D2E724B186F31188BFF36F8F70BD3D
:101C08004FF080430222C3F80423F8E711030020B1
:101C18000401004000E100E00800004010B504465F
:101C2800104B0121BFF35B8F53E8002F43E80010EE
:101C38000028F9D1BFF35B8F1AB1631E012B0CD9B1
:101C480010BD094803F081F8084900234B60CB60B8
:101C580001238B6002F017FEEFE72046FFF76AFFCB
:101C6800EEE700BFAC020020385A0000480200200E
:101C780010B504460A2807D0074B1868E1B28368F4
:101C88005B689847204610BD034B186883685B68FB
:101C98000D219847F0E700BFB002002010B5044CB2
:101CA8002046FFF72FFE2046FEF7BCFB10BD00BF05
:101CB800791C000008B50648064B186003F0C9FCFB
:101CC80018B1FFF7EBFF002008BD6FF01200FBE72B
:101CD800685A0000B00200201F4B03401F4A93427D
:101CE80032D016D8062B2BD006D9B3F5801F0DD1CC
:101CF80001230B7000207047FBB1022B03D1042392
:101D08000B70002070476FF0150070476FF01500DA
:101D18007047134A93421BD0B3F5A00F03D1032396
:101D28000B7000207047B3F5800F03D102230B70AE
:101D3800002070476FF0150070470020087070474A
:101D480006230B700020704707230B700020704794
:101D580005230B70002070470600F00006001000F5
:101D68000200400008B9024870470020704700BFD1
:101D7800505A0000F0B585B00E46194643681B7BE3
:101D880006F01F0545EA4315B2F5005F22D0074665
:101D98001446002302930393104603F0D4F88DF8F9
:101DA80008007B689968F14011F0010F02D1B4F581
:101DB800A03F14D0002302AA1946284601F0AAF928
:101DC800194B98422CD10121284601F06DFB0020C7
:101DD80005B0F0BD284601F0BFFB0020F8E705F08C
:101DE8001F0303F5E0734FF0A04252F8233013F0BD
:101DF800010FDFD10DF10701284601F0F9FA0B4B6D
:101E0800984203D00DF107030393D3E70DF10700C0
:101E180001F042FB044B9842F4D06FF00B00D7E777
:101E28006FF00400D4E700BF0000AD0B0400AD0B59
:101E380030B583B004460DF1070101F0D9FA054623
:101E4800204601F0B3FB0B4B98420FD19D4205D0C1
:101E5800084B984207D1002003B030BD9DF8070019
:101E680001F012FBF4E76FF00400F5E76FF00400EF
:101E7800F2E700BF0000AD0B2DE9F04387B0D0F8C2
:101E8800048098F80C3001F01F0545EA4315002A34
:101E980044D00C4617460026039604960DF1170108
:101EA800204601F0A5FA8146334603AA3146284662
:101EB80001F030F9304B98425BD1994536D017F490
:101EC800007F43D00DF103013846FFF705FF0646B2
:101ED80040BB9DF803308DF8043017F4807F0CBFA9
:101EE800012300238DF80530384602F0F9FF8DF8FC
:101EF800060017F4006F1ED0D8F80430012101FA4B
:101F080004F4C3F80845002201A9284601F0B2F9F3
:101F1800194B984206D06FF0150603E02846FFF7E4
:101F280087FF0646304607B0BDE8F0839DF81700E6
:101F380001F0AAFAC3E717F4806FE4D0D8F80420B8
:101F4800012303FA04F4C2F80C45DCE7384602F032
:101F5800C7FF8DF8080000231A4602A9284601F099
:101F6800D9F8054B984201D10026DBE76FF015063A
:101F7800D8E76FF01506D5E70000AD0B08B501F0FE
:101F880079FA08B1002008BD01F04AFA084B9842D6
:101F98000AD10021074801F025FA00220521062070
:101FA800FFF762F90020EEE76FF00400EBE700BFEF
:101FB8000000AD0BDF4F000043681A68B1F5164FFB
:101FC8006FD03AD8B1F5165F6ED00AD9B1F5E14FA6
:101FD80075D024D947F6122399422BD14FF4000328
:101FE80013E0B1F5966F61D007D9B1F5166F63D0DC
:101FF800B1F5965F10D13C4B07E0B1F5967F58D00C
:10200800B1F5167F05D14FF41C33C2F824350020F2
:1020180070476FF0150070476FF015007047B1F505
:10202800615F4ED0B1F5964F01D1304BEDE76FF0BF
:10203800150070476FF015007047B1F5613F42D049
:1020480009D9B1F5612F46D01FD9294B994248D1FA
:102058004FF08053D9E7B1F5963F37D005D9B1F5A0
:10206800E13F0FD14FF0EB73CFE74DF6C023994214
:102078002ED0B1F5614F02D14FF46B03C5E76FF075
:10208800150070476FF0150070471A4B994225D01C
:10209800B1F5E12F02D14FF0E863B6E76FF0150014
:1020A80070474FF41D03B0E7134BAEE74FF49E2380
:1020B800ABE74FF4A033A8E74FF41D23A5E70F4B78
:1020C800A3E70F4BA1E74FF06C739EE70D4B9CE71E
:1020D8004FF4650399E74FF0706396E74FF080631C
:1020E80093E76FF01500704700B0130000A04E0092
:1020F80040420F0090D003000050270000C0750038
:1021080000F03A0000903A012DE9F04105460F46EB
:10211800D0F8108003F0D6FA20B9164B1B78ABB173
:10212800002300E001239BB14FF02003EFF311845B
:1021380083F31288BFF36F8F2646284603F0ABF867
:1021480050B984F31188BFF36F8FEDE70123EAE7F5
:10215800284603F0EFF80646414601F8107F0122B1
:10216800284603F0B2F886F31188BFF36F8FBDE8F5
:10217800F08100BF1103002038B504460D4601F177
:10218800120001F05FFA0C4B984211D1AB7C04F5B8
:1021980090710C34094AA23342F8331002EBC3039E
:1021A8005C60A97C01238B40C2F80435002038BD4F
:1021B8006FF00400FBE700BF0000AD0B00F001402A
:1021C80021F07F4100F5A870014B43F820107047BB
:1021D8000010014000F5A870014B53F8200070472B
:1021E800001001404FF480338340024AC2F8443360
:1021F800704700BF001001404FF480338340024A0B
:10220800C2F84833704700BF00100140014BD3F8B3
:10221800040570470010014010B501238340DC43DA
:10222800104ABFF35B8F52E8001F01EA040C42E832
:1022380000CEBEF1000FF6D1BFF35B8F4FF48032B2
:1022480002FA00F002F1804202F58052C2F8080357
:10225800BFF35F8FBFF36F8F0B4214BF01200020C5
:1022680010BD00BFC402002070B5044603F0F6F8A4
:1022780005464FF48033A340174AD2F8042313428B
:1022880005D10026284603F0F2F8304670BD012338
:10229800A340DB43114ABFF35B8F52E8001F01EAFA
:1022A800030042E80006002EF7D1BFF35B8F59B94F
:1022B80004F150039B009BB203F1804303F588337C
:1022C8001B6813B1012300E001231E46002BD9D05F
:1022D800204603F0B4F8D5E700100140C002002002
:1022E80001B9704701238340114ABFF35B8F52E85D
:1022F800001F194342E8001CBCF1000FF7D1BFF3DF
:102308005B8F4FF4803383400A4AC2F80433BFF32B
:102318005B8F094B1B68BFF35B8F23FA00F010F04B
:10232800010FDED0054B4FF40032C3F80021D8E787
:10233800C402002000100140C002002000E100E0BB
:10234800F8B5074614461E461046194603F083F8AA
:102358000546154B1A68A01A1C605E60A5F50013A7
:10236800B3F5400F08D3002402F0ACF83846FFF765
:1023780031FFA8420CD0F8BD0C4B19680B0A0A06AD
:10238800521943F100030A49C1E900230124EBE78C
:102398001CB13846FFF726FFEDE74FF40001384639
:1023A800FFF70EFFF5E700BFB0000020C8020020CD
:1023B8009800002038B50D4B1B681D0A1C06BFF39A
:1023C8005F8FFFF723FF0346201845F10001B3F59F
:1023D800801F0AD2064BD3E90023994208BF9042D6
:1023E80003D210F1807041F1000138BDC80200200D
:1023F800980000202DE9F843064614461D4610466D
:10240800194603F028F80746FFF7D4FFA94208BF8A
:10241800A0421ED2B4EB000865EB01094FF08072B0
:1024280000234B4508BF42452ED3194B03EB061337
:10243800D3E90223AB4208BFA24218D0394630463E
:1024480003F01AF8394602F0F6FF241845F10005A2
:102458000DE00123B3400F4ABFF35B8F52E8001F22
:10246800194342E800100028F8D1BFF35B8F084BEE
:10247800320103EB0616C6E9024508999950099BF3
:1024880073600020BDE8F8836FF01500FAE700BF1D
:10249800A0000020C002002030B583B000231E4AEF
:1024A800C2F80835002B25DD1B4C0225C4F804535F
:1024B8001A4B4FF40032C3F8802100220121112069
:1024C800FEF7D2FE1120FEF7B1FE0123144A136075
:1024D8002360144A136000240194134B0093134A99
:1024E8000023204603F003F82846FFF797FB204611
:1024F80003B030BD0E4A02EB03124FF0FF304FF02D
:10250800FF31C2E902014FF480329A400249C1F812
:1025180004230133C6E700BF0010014000E100E0DA
:1025280008100140C402002049230000FFFF7F007B
:10253800A00000202DE9F04782B00446FFF794FE82
:1025480010B902B0BDE8F087FFF734FF06460F4622
:1025580002F084FF8246134B03EB0413D3E902898C
:102568004F4508BF46450BD20026504602F07FFF74
:10257800002EE6D0009542464B462046B047E0E79D
:10258800084A230102EB0411D6584D680020D050A8
:102598004FF0FF324FF0FF33C1E902232046FFF727
:1025A8002BFEE2E7A000002010B50D4BD3F8043352
:1025B80013F0020F0AD00B4B1B683BB1094B0022EA
:1025C8001A601B68084A1368013313600024002C42
:1025D80000DD10BD2046FFF7ADFF0134F7E700BF6F
:1025E8000010014004110140C802002010B582B05B
:1025F800B0F1FF3F07D0441E002C07DD114B9C4271
:1026080005DD114C03E000F50000F4E70024FFF7B6
:10261800D1FE0E4BD3E90023801AB0F5000F00D38A
:10262800002404440134B4F5000F00D3064C002004
:10263800019007490091121943F1000302F057FF76
:1026480002B010BDFEFF7F00FFFF7F00B00000203A
:102658004923000008B5FFF7ADFE024B1B68C01AFE
:1026680008BD00BFB0000020BFF34F8F0549CA68FE
:1026780002F4E062044B1343CB60BFF34F8F00BFFB
:10268800FDE700BF00ED00E00400FA05064B1B68FB
:10269800B3F1FF3F03D0062B04D000207047034B53
:1026A8001B78F8E70120704730010010E00F00F0B8
:1026B800094B1A7808331B68C3F30313062A01D0A1
:1026C80000207047033B002B04D8DFE803F001002B
:1026D8000120704700207047E00F00F0084B1B688E
:1026E800B3F1FF3F05D0062B06D00A2B06D00020F9
:1026F8007047044B1B78F6E70120704701207047AC
:1027080030010010E00F00F0094B1A7808331B68FD
:10271800C3F30313062A01D000207047033B002BA4
:1027280004D8DFE803F0010001207047002070475B
:10273800E00F00F0084B1B68B3F1FF3F05D0062BF4
:1027480006D00A2B06D000207047044B1B78F6E70A
:10275800012070470120704730010010E00F00F0A1
:10276800094B1A7808331B68C3F30313062A01D0F0
:1027780000207047033B002B04D8DFE803F001007A
:102788000120704700207047E00F00F0094B1A78CD
:1027980008331B68C3F30313062A01D000207047CF
:1027A800033B002B04D8DFE803F001000120704749
:1027B80000207047E00F00F00F4B1A68B2F1FF3F9E
:1027C80007D00E4B1B68062A0AD00A2A12D000200E
:1027D80070470B4B1A7808331B68C3F30313F2E7EF
:1027E800033B012B04D8DFE803F001010020704708
:1027F800012070470120704730010010340100109B
:10280800E00F00F0064B1B68B3F1FF3F03D0062B27
:1028180004D000207047034B1B78F8E7012070476D
:1028280030010010E00F00F0084B1B68B3F1FF3FC8
:1028380005D0062B06D00A2B06D000207047044B83
:102848001B78F6E70120704701207047300100101F
:10285800E00F00F0084B1B68084A1268062B01D0ED
:1028680000207047052A03D8032A03D300207047A5
:10287800012070470120704730010010340100101A
:10288800064B1B68064A12680A2B01D000207047C5
:10289800012A01D000207047012070473001001044
:1028A800340100100C4B1B680C4A1268062B03D02D
:1028B8000A2B07D000207047062A07D8032A07D317
:1028C80000207047012A05D8002070470120704772
:1028D80001207047012070473001001034010010BA
:1028E800024BD3F80034002BFAD0704700E00140C7
:1028F80008B5034BC3F80405FFF7F2FF08BD00BF96
:1029080000E00140014B024A1A6070471C00002099
:102918000090D00338B5FFF7B9FE28B1894B1B6882
:10292800C3F30423884A1360FFF7C2FE10B1874B34
:10293800874A1A60FFF7D2FE28B1864B1B68C3F39B
:102948004233854A1360FFF7DFFE20B1834AD3681C
:1029580023F08073D360FFF7EDFE40B14FF0804362
:102968000022C3F80C21C3F81021C3F83825FFF75B
:10297800F7FE10B17A4B03221A60FFF707FF58B130
:10298800784B05221A60783301221A60703B0022C6
:102998001A60043B3F221A60FFF70EFF002846D05A
:1029A8004FF08052D2F804146F4BC3F82015D2F8B8
:1029B8000814C3F82415D2F80C14C3F82815D2F853
:1029C8001014C3F82C15D2F81414C3F83015D2F823
:1029D8001814C3F83415D2F81C14C3F84015D2F8EB
:1029E8002014C3F84415D2F82414C3F84815D2F8B3
:1029F8002814C3F84C15D2F82C14C3F85015D2F883
:102A08003014C3F85415D2F83414C3F86015D2F84A
:102A18003814C3F86415D2F83C14C3F86815D2F812
:102A28004014C3F86C15D2F84424C3F87025FFF796
:102A3800E9FE28B14D4B1B6803F04F034C4A136065
:102A4800FFF7F2FE60B14FF08043D3F8003413F083
:102A5800010F05D04FF080436FF00102C3F8002446
:102A6800FFF7F8FE20B1434A136843F4806313600C
:102A7800FFF706FF20B13E4A136843F00F031360C7
:102A8800FFF710FF38B14FF01023D3F808224FF0AA
:102A98008043C3F85825FFF705FF68B14FF01023AE
:102AA800D3F80031B3F1FF3F1AD04FF01023D3F819
:102AB8000431B3F1FF3F13D04FF01023D3F80032A5
:102AC800002B1FDB4FF01023D3F80432002B19DB47
:102AD800294B1B6813F0010F27D1FFF713FF38BDEF
:102AE8000120FFF705FF4FF010250024C5F800412D
:102AF800FFF7F6FEC5F80441FFF7F2FE2046FFF7A0
:102B0800F7FED9E70120FFF7F3FE4FF01024152553
:102B1800C4F80052FFF7E4FEC4F80452FFF7E0FEE1
:102B28000020FFF7E5FEFFF79FFD0120FFF7E0FE1D
:102B38000024114B1C60FFF7D3FE2046FFF7D8FE98
:102B4800FFF792FD240300104035014074C0074090
:102B58000DF0ADBA440200103C050040F0ED00E075
:102B6800A00500401056004000C000405802001068
:102B7800E40E00403C1700400C12001030B404680A
:102B8800B4FA84F3D3F11F0315D401229A4024EA3E
:102B98000202BFF35B8F50E8005FA54204D140E812
:102BA800002CBCF1000FF6D1BFF35B8FE7D10B709F
:102BB800024830BC70470248FBE700BF0000AD0B7D
:102BC8000200AD0B10B403680C4623FA01F111F0B2
:102BD800010F14D102680123A3401343BFF35B8F95
:102BE80050E8001F914204D140E8003CBCF1000FBE
:102BF800F6D1BFF35B8FEDD1024810BC7047024895
:102C0800FBE700BF0000AD0B0400AD0B064B1B79C2
:102C18003BB9054B186001221A7100225A7103480A
:102C280070470348704700BFCC0200200000AD0B7E
:102C38000C00AD0B10B1012825D070474FF0804231
:102C4800D2F8183403F00303D2F8182412F4803FA2
:102C580011D14FF080430022C3F818250F4B0022F2
:102C68001A601B684FF080430222C3F8042308331C
:102C780001221A607047012BEBD14FF080430122EB
:102C8800C3F81825EAE7064B00221A601B684FF0C4
:102C980080430122C3F804231A60704704010040EE
:102CA8000001004030B583B0044618B1012813D0A4
:102CB80003B030BD4FF080430222C3F8082303F568
:102CC800827300221A601B68394B01221A60012C9A
:102CD8000FD042F2107552E001234FF08042C2F843
:102CE800083302F58072002111601268314A1360BE
:102CF800EDE701238DF8073042F2107518E04FF028
:102D08008042D2F8183403F00303CDF80730D2F824
:102D1800183413F4803F20D10023002B42D09DF8B3
:102D28000730012B3ED1012002F001FC013D39D0D2
:102D3800002CE4D0012C01D00023EEE74FF08042B4
:102D4800D2F80C3403F001038DF80730D2F80C34B4
:102D580013F4803F03D10023DFE70123DDE70123DC
:102D6800DBE74FF08043D3F8183413F4803F15D1D4
:102D78000023BBB1012002F0DAFB013D12D0002C88
:102D8800EFD0012C01D00023F3E74FF08043D3F8B4
:102D98000C3413F4803F03D10023EAE70123E8E76A
:102DA8000123E6E7012C83D1034B00225A717FE708
:102DB8000C00004004000040CC02002008B51B4B6A
:102DC8001B6883B1194B00221A601B684FF08043BF
:102DD8000122C3F80823164B5B7923B9144B5A71A7
:102DE8001B6800209847134B1B689BB1114B0022AE
:102DF8001A601B684FF08043D3F81824D3F81834AE
:102E080012F0030F07D101234FF08042C2F81835A2
:102E18000832136008BD4FF080430222C3F808232C
:102E2800034B1B6801209847F4E700BF00010040EE
:102E3800CC020020040100400830034B33F8100096
:102E480000F00100704700BF200000200830034B4D
:102E580033F81000C0F34010704700BF2000002076
:102E68000830044B33F8100010F01C0018BF012084
:102E7800704700BF200000200830034B33F81000D3
:102E8800C0F34000704700BF200000200830024B0C
:102E980033F81000400B704720000020002204E0A7
:102EA8004FF0FF3383420FD001321F2A0AD802F1B4
:102EB8000803064931F8133013F4807FF0D0C3F3C8
:102EC8004323EFE7002070470120704720000020CF
:102ED800002313B14FF0FF307047074A52F83320F0
:102EE800824201D00133F4E7034A02EBC30252687D
:102EF8008A42F7D118467047200000200830064B58
:102F080033F8100010F4807F04D0C0F3432003EBA3
:102F1800C0007047002070472000002070B50446AC
:102F28000D46FFF7EBFF20B10668426829462046A8
:102F3800B047044B9B6823B1024AD2682946204611
:102F4800984770BD2000002000F108020E4B33F8AE
:102F5800123013F4807F16D010B5C3F34324104603
:102F680023F4F853084A22F810302046FFF796FF5A
:102F780000B110BD0448002340F8343021465430D5
:102F8800FFF720FEF5E770472000002010B5044643
:102F9800FFF75CFF40B12046FFF778FF00F5A2700D
:102FA800064B002243F820202046FFF7CDFF0834C7
:102FB800034B002223F8142010BD00BF006000401E
:102FC8002000002070B582B006460C461546FFF773
:102FD800BBFF24B329462046FFF77AFF031E13DB05
:102FE800104A42F8334002EBC3014D605B029BB2CA
:102FF80006F1080032F810100B4343F4807322F8EE
:103008001030094802B070BD0DF107010748FFF7FD
:10301800B5FD054B9842F5D19DF80730E0E7024829
:10302800F0E700BF200000200000AD0B7400002076
:10303800F0B583B0002301A808E04FF0A042D2F811
:10304800201540F8041BC2F820150133002BF4D0DA
:1030580038E002AB03EB850353F8040C38B390FA5D
:10306800A0F0B0FA80F000EB451000F10802174B11
:1030780033F81210C60800F0070301AF012404FA60
:1030880003F2BB5D23EA0203BB5500F01F074FF0B4
:10309800A04607F5E07356F82320C2F30142C1F3B6
:1030A800820102F06EFABC40C6F82045D1E701352E
:1030B800002DCED0064B00221A601B6801A802F032
:1030C800AEFA08B10025F3E703B0F0BD20000020F8
:1030D8007C61004038B50446CCB194FAA4F3B3FA45
:1030E80083F301229A4024EA0204094A03F5A273F1
:1030F80052F82350C5F3042552F82300C0F30140C9
:1031080002F038FA01462846FFF708FFE4E738BD21
:10311800006000402DE9F843044615461E4659B3A1
:103128000F4602F011FA002840F0948004F01F02C4
:1031380002F5E0714FF0A04353F82130002F3CD046
:103148000C2141F0030123EA0103002F37D039781D
:1031580089000B4302F5E0724FF0A04141F822309C
:10316800404A04F1080132F8113023F002039BB2FF
:1031780043F0010322F81130B5B195F80080D5F875
:1031880004902046FFF778FED8B1B9F1000F63D15B
:10319800344B04F1080233F8120020F01C0080B20E
:1031A80040EA880023F81200002E59D0726831686E
:1031B8002046FFF707FFBDE8F8830021C1E700219B
:1031C800C7E7284B04F1080233F8127027F02007EC
:1031D800FF04FF0C23F81270B9F1000FD8D0B8F132
:1031E800030F3BD86B681D78B8F1000F06D105F5C1
:1031F800A2751D4B002243F82520C9E7404602F07E
:10320800BAF9194B05F5A27253F8221021F00301FF
:1032180043F8221053F8221021F4473121F4407169
:1032280043F8221053F822C0210201F4F851000497
:1032380000F4403001434CEA010143F822106D03C9
:10324800ADB204F108032F4347F02007054A22F8DE
:1032580013709DE70548AEE70448ACE70348AAE7C2
:103268000348A8E720000020006000400400AD0BE0
:103278000000AD0BF8B50446164600294DD00D46A2
:1032880002F071F928B12046FFF7E0FD002840F070
:1032980096802046FFF7E4FD18B16B78012B00F00B
:1032A8009080A81C04F01F0202F5E0714FF0A043C3
:1032B80053F821106F1C74D0022343F00103002837
:1032C80071D04FF00C0C43EA0C03002D6ED04FF474
:1032D800E06C43EA0C0321EA0301002F69D06B7804
:1032E8005B0043F00103002865D0A8788000034301
:1032F800002D62D02878000203430B4302F5E072E8
:103308004FF0A04141F82230324A04F1080132F866
:10331800113043F0030322F81130002E53D0204619
:1033280002F021F9002850D1327802F5A2712A4B17
:1033380043F82100274904F1080031F8103023F040
:103348002003DB04DB0C21F81030717800293ED013
:1033580096F802C0204D02F5A27655F8260020F412
:10336800981020F4F85045F8260055F826702002E9
:1033780000F4F850090401F4403101434FEA0C50BD
:1033880000F480100143394345F82610520392B2E5
:1033980008341A4342F020020E4B23F814200F4839
:1033A80012E0002389E74FF0000C8CE74FF0000C87
:1033B8008FE7002395E7002099E700209CE708485D
:1033C80002E0074800E00548F8BD0548FCE7034867
:1033D800FAE700BF20000020006000400000AD0BAD
:1033E8000400AD0B014B9860D960704720000020A5
:1033F80038B504460D46FFF729FD40B104F1080031
:10340800044B33F810305B0B2B70034838BD03486E
:10341800FCE700BF200000200000AD0B0400AD0B4E
:103428000F4B93F858300BB10E48704710B50C4C41
:103438004022002104F1100001F02BFC0620FDF7CA
:10344800F5FE094B00221A601B68084B4FF000423A
:10345800C3F80423012384F858306365044810BD79
:10346800200000200500AD0B7C610040006000409A
:103478000000AD0B034B93F85800003818BF01202B
:10348800704700BF2000002008B501460148FFF73B
:1034980099FB08BD7000002008B501460148FFF7F8
:1034A8006DFB08BD7000002038B504460D46FFF7D7
:1034B800CDFC08B3204602F056F8E8B12046FFF7E5
:1034C800E5FC830003F580739BB203F1804303F5A9
:1034D800C04300221A601B681D4A00F5A27152F809
:1034E800213043F0010342F8213065B3012303FA88
:1034F80000F0C2F8040326E004F10803154A32F884
:103508001330C3F38203042B0ED0052B1CD004F018
:103518001F034FF0A042D2F8102522FA03F313F04C
:10352800010F13D0032100E0032104F01F044FF022
:10353800A04204F5E07452F8243023F4403343EAFF
:10354800014342F8243038BD0221EEE70221ECE7BE
:10355800006000402000002010B50446FFF776FC0C
:10356800A0B1204601F0FFFF80B12046FFF78EFC96
:10357800012282400C4BC3F8082300F5A27053F8CF
:10358800202022F0030243F820200BE004F01F045F
:103598004FF0A04204F5E07452F8243023F440338D
:1035A80042F8243010BD00BF0060004010B504464A
:1035B800FFF742FC08B9094810BD2046FFF7CCFFC9
:1035C8002046FFF7E3FC04F01F0404F5E0744FF015
:1035D800A043022243F824200148EDE70400AD0B84
:1035E8000000AD0B38B501204FF4807300210D4663
:1035F80003E0400004339BB20131072914D803F1DA
:10360800804202F5C0421268002AF2D00B4AD2F872
:1036180004231042EDD003F1804202F5C042002499
:10362800146012680543E4E7054B1B681BB928467C
:10363800FFF750FD38BDFFF7FBFCF8E700600040DE
:103648007C61004008B501460148FFF797FA08BDBC
:103658007C000020034B044A934201D21833FAE756
:10366800704700BF385A0000805A000070B50646FF
:10367800114B53F8204009E0404217E0EB681870FE
:10368800EA68537843F0010353700834731C0A4AFC
:1036980052F82330A3420DD9656823682846984715
:1036A800002DF2D00028EBD00028E5DBFF28E5DD6F
:1036B800FF20E3E770BD00BFC05C000038B50546D9
:1036C80028B303782BB3144C00E01834134B9C42F6
:1036D80008D0204601F0BDFF0028F6D02368AB4291
:1036E800F3D112E00C4C00E018340C4B9C420BD088
:1036F800204601F0AEFF0028F6D02168284601F0E8
:103708009AFA0028F0D100E00024204638BD04468B
:10371800FBE70024F9E700BF385A0000805A000090
:10372800F0B589B00446154BB02505FB003500EB14
:10373800C003134E06EB431606AF0346114A082191
:10374800384600F09BFF04EB44040F4800EBC40428
:103758000597012304930F230393002302930193F6
:1037680000940A4B4FF480723146284600F0FCF86A
:103778006B7B23F004036B7309B0F0BDB800002025
:1037880040070020D85C0000D4020020D53A000091
:1037980070B586B000F090FC1B4D1C4BDD611C4BD6
:1037A8000593012304930024039402940194009444
:1037B800184B4FF480621849284600F0D5F80646A1
:1037C8006B7B23F004036B73284601F0C8FF002CC1
:1037D80002DD304606B070BD2046FFF7A1FF0F4B53
:1037E800B02202FB043204EB4401084B03EBC10393
:1037F800DA601C7504EB8411094A02EB411202F5E8
:1038080002625A600134E2E768010020D402002015
:10381800E45C00002D38000020030020B8000020E0
:103828006008002008B50A4B01221A700220FFF731
:103838001DFF00F0C9FE0320FFF718FF00F0F8F89D
:10384800FCF7B0FD034A137B23F00103137308BD93
:10385800110300206801002008B50146014A02480A
:10386800FDF7DAFD2D3800006801002008B503488F
:10387800034A121A002101F00CFA08BD9800002032
:103888001403002000B5ADB01B4B83F308881B4C14
:10389800636943F400736361E02384F822300025F0
:1038A800E57725766576A576636A43F4E023636257
:1038B80084F82350FDF7FAFEFDF79AFC4FF0FF332A
:1038C800A362E362FDF7FCFFFDF796FF01248DF884
:1038D8000D408DF80C4026952795094BC3F808D064
:1038E800FFF7B8FE2846FFF7C1FE2046FFF7BEFEE9
:1038F800FFF74EFFFFF7B0FF8010002000ED00E05B
:10390800D40200204FF02003EFF3118183F31288D3
:10391800BFF36F8F0A4B9B6A834204D11A6F084B1F
:103928009A6207E0134613B11A6F8242FAD10BB1BB
:10393800026F1A6781F31188BFF36F8F704700BF5A
:10394800D402002038B514461D4654EA050302D1B6
:1039580001F0BEFE38BD2B460249183000F008FDC4
:10396800F8E700BF9F5700002DE9F04F85B00446E7
:103978000F4615461E46DDF838A0DDF83C90DDF808
:103988004080DDF84CB000F158038365C365129B95
:103998000422119901F0A0FE2A463946204601F07A
:1039A8007FFE0546CDF80880CDF80490CDF800A03C
:1039B8003346024639462046FDF7DEFC00236365A0
:1039C8002666C4F864A0C4F86890C4F86C804FF008
:1039D8002003EFF3118283F31288BFF36F8F134B29
:1039E800996A21679C6282F31188BFF36F8FBBF1DC
:1039F800000F13D01F22594604F1740001F0EFF8AC
:103A0800002384F89330094B9B685BB1D3F8A4304A
:103A1800C4F8A430284605B0BDE8F08F002384F828
:103A28007430F0E7C4F8A430F4E700BFD4020020F3
:103A38002DE9704386B0234C234B9C4215D2E36A90
:103A48000593236A0493E3690393A3690293636963
:103A5800019323690093E368A26861682068FFF70F
:103A680083FF23685C653034E6E700F013F9154CF2
:103A78001BE0266823EAE3734FEAE3794FEAC9318A
:103A880041EA5341D80340F2E7354FF47A720023F4
:103A980040194FF0000545EB0101FCF709FB024610
:103AA8000B463046FFF74EFF3034074B9C4204D29A
:103AB800636AB3F1FF3FF7D0DBE700F089FA06B09D
:103AC800BDE87083940000209400002008B501E050
:103AD800FDF794FB4FF02002EFF3118382F3128875
:103AE800BFF36F8F01F03AFF034B9861FDF7C2FAFD
:103AF8000028EFD1ECE700BFD402002038B5044617
:103B08004FF02003EFF3118583F31288BFF36F8F13
:103B180001F0C0FE48B10022C0F8AC2001F01FFE41
:103B28002946074800F09AF838BDA368E26893422E
:103B380003D001221344A360F2E70022FAE700BF92
:103B48000003002030B583B01D464FF02003EFF38B
:103B5800118183F31288BFF36F8F836843B1013BF0
:103B6800836081F31188BFF36F8F002003B030BDED
:103B7800144654EA050306D0CDE900450246054837
:103B880000F0D0F9F2E781F31188BFF36F8F6FF07F
:103B98000F00EBE70003002038B5B3F1FF3F08BF83
:103BA800B2F1FF3F00D138BD0249183000F0E0FB08
:103BB800F9E700BF9F57000008B5084B1B6803B919
:103BC80008BDFEF747FD0346044A10680344044A4B
:103BD8001361002101F0D8FEF2E700BF08030020BE
:103BE800D40200202DE9F0410646884600234FF014
:103BF8002002EFF3118782F31288BFF36F8F09E079
:103C0800134BC3F80080FFF7D7FF87F31188BFF382
:103C18006F8F0123CBB900230E4A1361750CF4038F
:103C280040F2E7304FF47A72002320184FF0000179
:103C380045EB0101FCF73CFA074B1860002EDFDD6D
:103C48000228B8BF02201860DAE7BDE8F08100BF9B
:103C580004030020D40200200803002008B5084609
:103C680021B9EFF3058313B9012100E0002111F018
:103C7800010F07D0064BDA699B689A4202D0FDF71C
:103C880023FB03E080F31188BFF36F8F08BD00BFEB
:103C9800D402002000234FF02002EFF3118182F3B9
:103CA8001288BFF36F8F53B9054B9A68D37B013BDA
:103CB800D37381F31188BFF36F8F0123F3E7704744
:103CC800D402002038B504460F4801F041FD0546EE
:103CD80070B184B90D4B9B685A7B12F01F0F0AD143
:103CE800AA6942B9DA897F2A05D9084AD3610AE064
:103CF800064BDD68EDE7054B9B68AB4201D0FFF74B
:103D08005BFF024BDD6138BDF4020020D4020020C5
:103D180038B50546427B90F90D30002B28DB6B7BCC
:103D280063F07F036B731A4B53F8204F9C422DD0DE
:103D38006CB12146284601F0E4FC002820DC34B1AF
:103D4800134B5B6A9C4202D02468002CF0D1104BC4
:103D58005A6A03F1200129606A6015605D620C4BA4
:103D68009868A84214BF00200120FFF7ABFF38BDB8
:103D780002F07F0242730146064801F0E1FCCEE7FB
:103D880063686B602C601D606560E8E70024CFE71E
:103D9800D4020020F402002010B54FF02003EFF306
:103DA800118483F31288BFF36F8F1C4B9B681C4AE6
:103DB800126893421DD01A4A00211160194A1268EC
:103DC80022B3DA897F2A21D85A7B12F01F0F1DD11E
:103DD80093F90E10144A1268914217DB134A934262
:103DE80014D00E4A126982420ADD101A0B4B186170
:103DF8000FE0FFF7E1FE84F31188BFF36F8F0CE04B
:103E08001846FFF785FFFFF7D7FE02E0034B0022B5
:103E18001A6184F31188BFF36F8F10BDD40200209C
:103E2800000300200803002004030020B80000203D
:103E380038B5437B90F90D20002A2DDB044613F09A
:103E48001F0F05D182690AB1002202E0012200E0B9
:103E580000220AB363F07F036373144B53F8205FA7
:103E68009D4220D06DB12946204601F04AFC002829
:103E780013DC35B10D4B5B6A9D4202D02D68002DD5
:103E8800F0D10A4B5A6A03F1200121606260146084
:103E98005C620020FFF716FF38BD6B686360256021
:103EA8001C606C60F5E70025DCE700BFD402002049
:103EB80010B54FF02003EFF3118483F31288BFF39A
:103EC8006F8F437B13F0040F04D184F31188BFF381
:103ED8006F8F10BD23F004034373FFF7A9FF21463A
:103EE8000148FFF7BBFEF4E70403002010B50446C1
:103EF800427B90F90D30002B08DB084B9868A042F4
:103F080014BF00200120FFF7DDFE10BD02F07F0284
:103F180042730146024801F013FCEEE7D402002088
:103F2800F402002010B50C461146064B9868064B63
:103F38001860DDE9022301F08CFC2046FDF7C4F986
:103F480010BD00BFD40200200003002038B504468D
:103F5800183001F0E5FC00234FF02002EFF3118543
:103F680082F31288BFF36F8F10E0637B43F0100376
:103F78006373154B9868A04214BF00200120FFF717
:103F8800A1FE85F31188BFF36F8F012363B9627BAC
:103F980094F90D30002BE8DA02F07F0262732146B3
:103FA8000A4801F0CDFBE0E7074B9B68A34200D02D
:103FB80038BD4FF02003EFF3118083F31288BFF36D
:103FC8006F8F01F0A8FBF3E7D4020020F402002071
:103FD80010B500234FF02002EFF3118482F312880A
:103FE800BFF36F8F6BB90C4B9A68D37B0133D373D4
:103FF8000020FFF767FE84F31188BFF36F8F01235A
:10400800F0E74FF02003EFF3118083F31288BFF33A
:104018006F8F01F080FB10BDD4020020F8B5437B00
:1040280013F0080F45D1054643F0080303F0DF03FA
:10403800437313F0800F14D1AB685BB1284601F0CD
:104048005EFB294601F07CFB6B7B23F002036B735C
:104058000023AB6005F1180001F062FC05F1580778
:104068001CE003F07F0343730146124801F068FB2C
:10407800E2E7204601F043FB214601F061FB637B48
:1040880023F0020363730026A66004F1180001F010
:1040980047FCC4F8AC602046FFF7CAFE3C68BC4247
:1040A80001D0002CE5D10120FFF70CFE2846FFF7D0
:1040B80029FCF8BDF402002008B5044801F015FCFD
:1040C80000210846FFF78EFD08BD00BFF002002062
:1040D800F8B54FF02003EFF3118683F31288BFF38E
:1040E8006F8F1C4CA1684B7B03F07F034B7304F16B
:1040F8002007384601F024FBA5686B7B63F07F033B
:104108006B73246ABC4223D06CB12146284601F067
:10411800F8FA002816DC34B10E4B5B6A9C4202D0D8
:104128002468002CF0D10B4B5A6A03F12001296056
:104138006A6015605D620120FFF7C4FD3046FDF737
:10414800C3F8F8BD63686B602C601D606560F2E7BA
:104158000024D9E7D40200202DE9F04104460D4699
:1041680054EA050137D06FF001010A1A4FF0FF3108
:1041780061EB0503012A73F1000330DB6FF00106E0
:10418800361A4FF02003EFF3118883F31288BFF338
:104198006F8F164FB868164B1860FFF7A7FEB86800
:1041A80022462B461349183000F0E2F8BA68537BD0
:1041B80043F0100353734046FDF786F8002501F0DD
:1041C8000EFC341A65F10005012C75F100030ADABA
:1041D8000020BDE8F081FFF77BFF0020F9E701F040
:1041E800FEFB0619CDE72046F3E700BFD402002006
:1041F800000300209F57000038B5B1F1FF3F08BF0A
:10420800B0F1FF3F1AD0FFF7A7FF0446C5176901B1
:10421800430141EAD062181A62EB05039A0042EAA8
:10422800907281001346081945EB0303DA0042EA4D
:104238005072C100C80B40EA424038BD034B986831
:10424800FFF784FE4FF0FF30F7E700BFD4020020ED
:10425800014B9868704700BFD402002038B54FF072
:104268002003EFF3118583F31288BFF36F8F437B2D
:1042780013F0080F04D085F31188BFF36F8F38BD92
:104288000446FFF7CBFE084B9B68A34204D085F396
:104298001188BFF36F8FF2E7EFF30583002BF6D198
:1042A8002846FDF711F8F2E7D402002008B50648C1
:1042B800064A121A064900F0C8FC064A0649074889
:1042C80000F0C3FC08BD00BF0000002094000020DF
:1042D800245D000000000000245D000000000020B4
:1042E800034B1868984200D070470020FCE700BFD5
:1042F8008000002030B1044A5268904201D0006822
:1043080070470020704700BF8000002008B5044BAC
:104318001B680BB1002008BDFEF79CF9FBE700BF46
:104328000C03002010B5FFF7DBFF0446FFF7EEFF94
:104338008CB1D4E90423121A63EBE073012A73F1F8
:10434800000111DB1046B2F1004F73F1000304DBEA
:104358006FF0004001E06FF00040044B1B6913B19F
:10436800834200DA184610BD0020F6E7D402002088
:104378002DE9F04F83B0B3F1FF3F08BFB2F1FF3F23
:1043880000F09680824614461D46816000234FF057
:104398002002EFF3118B82F31288BFF36F8F2EE0A8
:1043A800012200234BE0FFF7B1FF221845EBE07331
:1043B800013243F10003CAF81020CAF8143042E071
:1043C800009BC21A019B61EB0303CCF81020CCF8C8
:1043D8001430DCF80430CAF80430CAF800C0C3F856
:1043E80000A0CCF804A0BCF1000F49D0FFF778FF7B
:1043F800824550D08BF31188BFF36F8F0123002BB8
:1044080056D16FF00103B3EB04084FF0FF3060EBB7
:104418000509B8F1000F79F10003C4DB264A1368D7
:104428005268E31845EB02026FF00101CE1A60EB07
:10443800020732463B46012E77F10001B0DBCAF88D
:104448001020CAF81430FFF74BFF8446BCF1000F68
:10445800C9D0DCE90401DAE90423CDE9002382426A
:104468008B41ADDB009B1A1A019B63EB0103CAF871
:104478001020CAF814306046FFF73CFF8446E5E791
:104488000E4B5A68CAF80030CAF80420C2F800A0D7
:10449800C3F804A0AAE7FFF745FF034618B1084A86
:1044A80012698242A6D000211846FEF79FF8A1E7BC
:1044B80003B0BDE8F08F00BF180200208000002084
:1044C800D4020020F8B50446FFF766FC4FF020033D
:1044D800EFF3118583F31288BFF36F8F284B1C60AD
:1044E800FFF7FEFE044650B3D0E90467244B1B686F
:1044F800D917B34271EB070221DB224AD2E9000146
:10450800801941EBE671C2E900019B1B1C4A13604C
:1045180000220023C4E90423204601F0EAF985F3C8
:104528001188BFF36F8FA368204698474FF0200388
:10453800EFF3118583F31288BFF36F8FD0E744B18F
:104548000F4B1968D4E90423521A63EBE173C4E9E9
:1045580004230C480A490C68D0E90023121943EBDC
:10456800E473C0E9002300240C60FFF7DBFE21465A
:10457800FEF73CF885F31188BFF36F8FF8BD00BFD5
:104588000C0300201802002010B500214FF0200372
:10459800EFF3118483F31288BFF36F8F0022002397
:1045A80069B9FEF757F8074BD3E90023121843F10E
:1045B800000384F31188BFF36F8F0121F0E71046E1
:1045C800194610BD1802002008B5034A03490448DB
:1045D80000F046F808BD00BFE85C0000EC5C000095
:1045E800FC5C0000024658B1436803F00303012B4A
:1045F80003D0032B07D1036843B1002090607047B4
:104608006FF0150070476FF0150070476FF01500D8
:1046180070470346426802F003028160032A03D10F
:10462800006800225A6070470020FAE700207047AF
:1046380010B40C6854B18A684B689A4206DA013B98
:104648009A4208D0531C8B60A05402E08B68013357
:104658008B6010BC7047531C8B600023A354F8E791
:104668000FB400B583B004A951F8040B0191FBF70E
:10467800DFFE03B05DF804EB04B070470CB400B57E
:1046880083B004AB53F8042B0193FBF7E1FE03B0AE
:104698005DF804EB02B0704701F00703018B21F0CD
:1046A80007011943018370472DE9F04106460F467B
:1046B8009046816819B10C4631B10C6804E00C468B
:1046C80002E0234621461C4659B14D6843463A4606
:1046D8003046A847002CF4D02346002CF2D023689B
:1046E800F0E7BDE8F081038B13F0070303D10268FC
:1046F8000AB103207047022B03D0012B06D00020FB
:104708007047428B002AF8D10420704703680BB128
:10471800052070470020704738B504460D46038BC6
:10472800002A07DB03F007035A1F012A0ED9042BBE
:1047380032D038BDD0E9000185E8030000232360AA
:10474800636001212046FFF7A7FFF2E7D0E90001E7
:1047580085E80300002222606260062B17D12B68CF
:104768003BB1628B01326283002BF9D01B68002BAE
:10477800F6D102212046FFF78FFF2046FFF7B3FF4F
:104788000028D6D0238B43F020032383D1E70021D0
:104798002046FFF781FFF0E70021FFF77DFF204665
:1047A800FFF7A1FF0028C4D0238B43F02003238305
:1047B800BFE758B110B50C4659B1081DFFF712FFF5
:1047C80018B9A36833F0030306D110BD6FF01500C4
:1047D80070476FF01500F8E76FF01500F5E72DE961
:1047E800F04107460C4616461D461946201DFFF7A0
:1047F80010FF28B180462B46324621463846C0472E
:10480800BDE8F0812DE9F84381460C4690461F46E5
:1048180005E065603B4642464846FFF7E0FF2168F1
:1048280029B10D68256066688E42F3D1F1E7BDE8CD
:10483800F88310B54FF02004EFF3118284F3128847
:10484800BFF36F8F41610121FBF718FE10BD0346CE
:1048580068B179B10A6882B14A688AB100201860E3
:1048680058609860D86058619861196170476FF016
:10487800150070476FF0150070476FF0150070470E
:104888006FF015007047F8B504460F46FFF791FF23
:10489800061E37DB4FF02003EFF3118283F31288F3
:1048A800BFF36F8F258B05F00705638B4FF6FF71FC
:1048B8008B422FD02E46022D0CD08DB1042D0FD057
:1048C800062D0DD0052D1FD06FF0040600210B46D4
:1048D80008460AE00133638301210023184604E0F7
:1048E800B5FA85F35B090021012028B10020386062
:1048F8006068A8B107606760ABB982F31188BFF33D
:104908006F8FA9B93046F8BD6FF0850600210B46B8
:104918000846EAE76FF00A0600210B460846E4E776
:1049280067602760E8E702212046FBF7A7FDE9E773
:1049380000232A4639462046FFF751FFE2E708B52B
:104948000446084611461A46A047FFF781FCFCF7C3
:104958003DFF10B40446026800201378A3F130012B
:10496800092906D800EB8000013203EB40003038FB
:10497800F3E7226010BC70472DE9F04F83B004467E
:104988000D4601929A46DDF83080D378A3F1410BA9
:104998006F2B0FD006D9702B0FD0782B10D14FF07A
:1049A800100926E0582B02D04FF00A0921E04FF0F9
:1049B80010091EE04FF008091BE04FF0100918E03D
:1049C8004FF00A0915E0BBF1190F20D8D2B23732DF
:1049D800D2B208F8012D32463B4620462946FBF75D
:1049E80067FBBD4208BFB44215D3D04513D904466E
:1049F8000D464E4600274A463B4620462946FBF7C9
:104A080057FB092ADFD8D2B23032D2B2E1E7D2B2AC
:104A18005732D2B2DDE7019B1B7813F0200F05D087
:104A2800B9F1080F06D0B9F1100F09D0404603B00C
:104A3800BDE8F08F019A937843F008039370F5E787
:104A4800019A937843F010039370EFE72DE9F04152
:104A580007460E4614469846002506E0314614F8E7
:104A6800010BB847002809DB01354445F6D3B8F1F6
:104A7800000F02D12378002BF0D12846BDE8F08141
:104A880070470022026042608260704708B500F0FB
:104A9800EDFD08BD08B501460068FFF7F7FF08BD42
:104AA80008B500210120FFF7F1FF08BD08B5FCF7A4
:104AB800F1FBFCF7E7FC08BD0020704700230B70F2
:104AC800704708B500231370CB1E092B1AD8DFE8EE
:104AD80003F005090D111919191919141146FCF7D4
:104AE80059FD10E00021FCF711FD0CE00021FCF756
:104AF800D7FC08E0FCF7F8FC05E01146FFF7DEFFFD
:104B0800002000E0002008BD43685A1E134206D169
:104B18001F2B06D903681A4205D0002070470020D1
:104B280070470020704701207047072805D810B546
:104B38000446FCF781FE204610BD6FF01500704753
:104B480000B585B00B6801934B688A68202B12D991
:104B5800B3F1004F11D8013BB3FA83F3C3F11F033C
:104B68005B0003F03E031343039301A9FFF7DDFF46
:104B780005B05DF804FB0823F5E73E23F3E72DE9CC
:104B8800F84380460F4699461646002509E0214617
:104B9800F0B2FFF7D5FF064610F1160F14D0013614
:104BA8000135BD4210DA05EB450408EB8404626860
:104BB800002AF5D0B9F1000FE9D02046FFF7A4FF8D
:104BC8000028E4D16FF015063046BDE8F88308B533
:104BD800FCF742FE08BD08B5FCF748FE08BD0346D1
:104BE800A2B110B40C782CB103F8014B0131013A91
:104BF800002AF7D122B1002103F8011B013AF9E795
:104C080010BC7047002103F8011B013A002AF9D1B2
:104C18007047034600201A7812B101330130FAE7D1
:104C28007047034600201A7822B1884202D2013325
:104C38000130F8E7704703780A78934203D113B13B
:104C480001300131F7E7981A704710B480EA010380
:104C580013F0030F01D0034617E0034613F0030FC8
:104C68000BD0A2B111F8014B03F8014B013AF5E75B
:104C780051F8044B43F8044B043A032AF8D804E0EB
:104C880011F8014B03F8014B013A002AF8D110BC86
:104C9800704710B4CCB2034613F0030F04D09AB196
:104CA80003F8014B013AF7E7C9B241EA012141EAA9
:104CB8000141032A06D943F8041B043AF9E703F82B
:104CC800014B013A002AFAD110BC70474FF0FF306F
:104CD80070474FF02002EFF3118382F31288BFF37D
:104CE8006F8F4FF080420121C2F8781583F3118845
:104CF800BFF36F8F0020704784B004AB03E907004F
:104D08009DF80430062B01D004B070474FF0804363
:104D18000122C3F80025BFF34F8F20BFFDE784B001
:104D280004AB03E90700002383F31188BFF36F8FF7
:104D380004B07047006901EB41018900383108442B
:104D48007047406800EBC10070470069C1EBC101C2
:104D580000EB8100704708B5C9B2FFF7EBFF806828
:104D680000F0070008BD4FF02003EFF3118283F332
:104D78001288BFF36F8F036813F0C00301D08B4212
:104D880007D101230360002082F31188BFF36F8FDE
:104D980070474FF0FF30F7E710B44FF02003EFF300
:104DA800118283F31288BFF36F8F036803F0C00486
:104DB80003F00703012B09D08C420AD04FF0FF30D3
:104DC80082F31188BFF36F8F10BC70470160002019
:104DD800F6E76FF07700F3E74FF02003EFF3118267
:104DE80083F31288BFF36F8F036803F0C00343F0A7
:104DF8000203036082F31188BFF36F8F7047F8B521
:104E080006460C46FFF796FF05684768002340F8FA
:104E1800083BFFF7E1FF1DB13A4621463046A84757
:104E2800F8BD70B506461546CCB22146FFF782FF9D
:104E380029460830FFF797FF002806DB2146304651
:104E4800FFF77FFF43689847002070BD08B58022B0
:104E5800FFF7E7FF08BD2DE9F041064690461F46DB
:104E6800CDB22946FFF766FF044606990830FFF7DA
:104E780093FF002809DBC4F80080676029463046A4
:104E8800FFF75FFF036898470020BDE8F08110B581
:104E980082B080240094FFF7DEFF02B010BD10B589
:104EA8001446C9B2FFF751FF0021A04710BD08B54D
:104EB8000120FDF7BFFE08BD08B50020FDF7BAFECA
:104EC80008BD08B50120FDF7EDFE08BD08B50020B6
:104ED800FDF7E8FE08BD08B51046FEF70FFE08BD51
:104EE80010F0100F04D110F0200F03D100207047EC
:104EF800032070470120704743685B68D3F810357A
:104F08000B600020704743685B68D3F80405424093
:104F18000A404240C3F804250020704743685B6894
:104F2800C3F808150020704743685B68C3F80C1580
:104F38000020704743685A68D2F804354B40C2F8DD
:104F4800043500207047B0F5804F07D0B1F5C02F69
:104F58000DD0B1F5003F08D001207047B1F5003FF2
:104F680001D00520704704207047022070470320B5
:104F7800704770B40069051D4368DBB10E46002414
:104F88000AE00B6843606C68A1420FD16B600DE0CA
:104F98006C600BE01C461B685BB19E42FAD1002C8A
:104FA800EFD00B6823606B689942F1D000230B6047
:104FB80000E052B162B143680B6041606B680BB1AD
:104FC800002006E06960002003E06FF0150000E0B3
:104FD800002070BC704770B500F01F044009FCF752
:104FE800C1FED8B1064603690125A540596819B123
:104FF8000C4649B10C6807E00C4605E064B123464D
:1050080004B1236821461C4641B18A682A40F5D07C
:105018004B6830469847F1E72346F3E770BD43688D
:1050280000295DD1DA68B2F1FF3F10D002F01F020B
:10503800012101FA02F24FF0A041C1F80825DA680F
:1050480002F01F0202F5E072032041F822001A69FB
:10505800B2F1FF3F0CD0197F00293DD0032102F0A7
:105068001F02890002F5E0724FF0A04040F82210BC
:105078005A69B2F1FF3F10D002F01F02012101FA74
:1050880002F24FF0A041C1F808255A6902F01F0248
:1050980002F5E072032041F822009A69B2F1FF3F5D
:1050A8000BD0597FD1B1032102F01F02890002F50C
:1050B800E0724FF0A04040F822101A68D8681969C9
:1050C800C2F80C05C2F814151A6859699B69C2F828
:1050D8000815C2F8103570470021C0E70021E3E742
:1050E800DA68B2F1FF3F08D002F01F0202F5E07261
:1050F8004FF0A041022041F822001A69B2F1FF3FA7
:1051080008D002F01F0202F5E0724FF0A041022021
:1051180041F822005A69B2F1FF3F08D002F01F029D
:1051280002F5E0724FF0A041022041F822009A698E
:10513800B2F1FF3FC1D002F01F0202F5E0724FF05A
:10514800A041022041F82200B7E743681B684FF0EE
:105158002001EFF3118281F31288BFF36F8FD3F828
:10516800201131B10021C3F82011D3F820110121F9
:10517800D96082F31188BFF36F8F704738B5044642
:1051880043681D68D5F8043313F4807F02D0D5F83E
:105198002031DBB963685B6813F0100F15D04FF04E
:1051A8002002EFF3118382F31288BFF36F8FD5F8D3
:1051B800582112B10022C5F800254FF48002C5F825
:1051C800082383F31188BFF36F8F38BDFFF7BDFF46
:1051D800E0E770B582B005460C464B79012B06D046
:1051E800032B11D06FF08503184602B070BD002361
:1051F8008DF80630A379032B38D1E37943B1012B1D
:1052080010D06FF08503EFE710238DF80630F1E733
:1052180000238DF80430237943B1022B22D06FF09C
:105228008503E1E701238DF80430F4E700238DF8C6
:10523800053021682846FCF7BFFE0346C8B96A68EE
:1052480010689DF805109DF806609DF8042031430C
:105258000A43C0F86C252A69043294E8030082E8FE
:105268000300C1E70E238DF80530E2E76FF08503F0
:10527800BAE76FF08503B7E70B4602699168506893
:1052880083E803000020704743681B68D3F8800454
:10529800C3F88004704743681A685B6803F0020328
:1052A800D2F8581129B933B9D2F820312BB90020D6
:1052B80070470120704700207047012070474368FD
:1052C8001B680822C3F80025704710B543681C689E
:1052D800C4F84415C4F848250023C4F82031D4F88C
:1052E8002021C4F85831D4F8583143685B6813F06A
:1052F800100F02D10123A36010BD0121FFF7DFFFCA
:105308004FF48003C4F80433F4E710B40469436825
:105318001B68D3F8102152B1627C0A700020C3F8D0
:105328001001D3F8102101221A6010BC70474FF009
:10533800FF30FAE770B5064614E07DB14FF0200360
:10534800EFF3118483F31288BFF36F8F3046FFF7B2
:10535800A2FFA0B984F31188BFF36F8F2120002129
:10536800FEF74AFF64243046FFF795FF05460028FC
:10537800E3D1012000F0DBF8013CF4D1DDE7204661
:1053880070BDF8B504464668356807690021C5F858
:1053980000153860FFF743FE216904312046FFF706
:1053A80018FF044668BB736813F0020F2BD108235B
:1053B800C5F80035337A5BB9C5F81031D5F8103126
:1053C80007F11103C5F834350123C5F838352B60CA
:1053D800736813F0020F03D14FF48073C5F80433D8
:1053E800736813F0100F03D04FF48003C5F804332B
:1053F8001037C5F844750023C5F848350123AB605C
:10540800EB602046F8BD39462846FCF7B5FE002873
:10541800CDDA0446F5E710B5044600220121022042
:10542800FBF722FF0220FBF701FF00212046FFF7D0
:10543800A8FF10BD7047401A20F07F40704700F168
:1054480050039B009BB203F1804303F5883300228D
:105458001A601B68704720F07F4070474FF02003A8
:10546800EFF3118083F31288BFF36F8F704780F3D7
:105478001188BFF36F8F7047F8B5064621F07F4556
:10548800FCF7A8FE074619E0132000F0ACFA22E06A
:105498003046FFF7D4FF3046FCF7A4FE29463046D5
:1054A800FCF78EFEFCF7B2FE84421ED0811C284613
:1054B800FFF7C1FFB0F5000F17D92F46FCF7A6FE7E
:1054C800044601463046FCF77BFE21463846FFF786
:1054D800B2FF0128D8D0A71C39462846FFF7ABFFF2
:1054E800B0F5000FD4D93D46D2E72846F8BDF0B54F
:1054F80083B0044617461D46FCF78EFE0646099BF8
:105508000193089B00933A462B462046FCF772FF0E
:10551800054631462046FCF7E3FE284603B0F0BDB9
:1055280008B50020FCF7F4F908B5804708BD08B5B0
:1055380000F059FA08BD08B50020FBF787FE00B156
:1055480008BDFBF773FEFBE710B50446FDF794FCB6
:1055580028B12046FDF77AFC18B1012000E00020B0
:1055680010BD0020FCE708B5FDF786FC80F00100BF
:10557800C0B208BD70477047032894BF00200120BF
:10558800704770B504460D4616460846FFF7F4FF07
:10559800B8B9022E37D0022004F01F034FF0A04103
:1055A80003F5E07351F8232022F4403242EA004226
:1055B80041F82320032D2AD0022E26D0032E2BD0EB
:1055C80070BD29462046FDF7A9FC04F01F0404F528
:1055D800E0724FF0A04353F82230C3F301439E42D8
:1055E800EED14FF0A043144653F8222022F4403263
:1055F80043F8242053F8242022F4403242EA064695
:1056080043F82460DCE70320C6E7012DD6D12946FC
:105618002046FDF783FCD3E7022DD1D1F7E710B47C
:10562800044600234BB94FF0A042D2F8201544F8A5
:10563800041BC2F820150133F4E7002313B100203E
:1056480010BC704750F823200AB90133F6E701204F
:10565800F6E748B1C3681888C0F30800B0F5807F42
:1056680014BF00200120704700207047F8B5054698
:105678000E464FF02003EFF3118783F31288BFF330
:105688006F8FFEF7E5FD044631462846FFF748FFD1
:1056980087F31188BFF36F8F2046FCF797F8F8BDA2
:1056A80010B4073222F0070202F1200301F12004AE
:1056B800C0F89840C0F89C200022C0F8A020C81864
:1056C80010BC7047EFF30580003818BF0120704701
:1056D80008B5FEF7EDFB08BD10B400248460037321
:1056E80042738173C4738461C46110BC704708B588
:1056F800FBF75AFCFFF79EFE08BD00207047806844
:10570800704790F90E3091F90E00834201D0C01A0B
:1057180070470020704708B5034620B9EFF30582AB
:1057280042B9012200E0002232B983F31188BFF3A5
:105738006F8F08BD0022F7E71846FBF7C5FDF8E7AD
:105748004A680B6813605A6000230B604B6070470F
:1057580003460068834200D070470020FCE738B554
:10576800044600234FF02002EFF3118582F31288DC
:10577800BFF36F8F07E02046FEF75AFB85F31188C9
:10578800BFF36F8F01232BB92046FFF7B6FF002820
:10579800F4D1F0E738BD70B50446A0F11805002330
:1057A8004FF02002EFF3118682F31288BFF36F8F58
:1057B80019E02846FFF7A3FF2946FFF7C1FF6B7BD7
:1057C80023F002036B730023AB6014F80B3C03F067
:1057D800EB0304F80B3C2846FEF72AFB86F31188F6
:1057E800BFF36F8F01234BB914F80B3C13F0280F4C
:1057F800F4D154F8103C002BDBD1E6E770BD70B54E
:1058080005460E46FEF772FB6B7B43F002036B7393
:10581800B6B1AE603468A64219D064B121462846B4
:10582800FFF76FFF00280CDC2CB173689C4202D094
:105838002468002CF1D173682E606B601D60756060
:1058480070BD63686B602C601D606560F8E70024BC
:10585800E3E72DE9F84305460F46914698460024AC
:105868004FF02003EFF3118683F31288BFF36F8F95
:105878004CB939462846FFF7C2FF86F31188BFF3B3
:105888006F8F0124F4E74A4643462846FEF784F919
:10589800BDE8F88370B5064600234FF02002EFF309
:1058A800118582F31288BFF36F8F1C4613E0FFF750
:1058B80026FF2146FFF744FF637B23F0020363734F
:1058C8000023A36004F1180000F02AF885F311887A
:1058D800BFF36F8F012333B93046FFF739FF044612
:1058E8000028E4D1F2E7204670BD031D43608360C1
:1058F800704738B50446FEF7FDFC48B102462069FA
:105908006569136951691B1845EB01011361516100
:105918006268236813605A6000232360636038BD9F
:1059280070B5044600234FF02002EFF3118682F38E
:105938001288BFF36F8F6FF0150008E02046FFF75D
:10594800D8FF284686F31188BFF36F8F01231D46C1
:105958001BB92368002BF1D1F4E770BD10B5002303
:105968004FF02002EFF3118482F31288BFF36F8F98
:105978004FF0FF303BB9FEF7D5FC84F31188BFF335
:105988006F8F0123F6E710BDF8B506460F460023D2
:105998004FF02002EFF3118582F31288BFF36F8F67
:1059A8000AE0012404F00104012800DD7CB985F334
:1059B8001188BFF36F8F01231C467BB9FEF7B2FC39
:1059C800B0F1FF3FEDD0B042ECDB0124EAE7394605
:1059D800B042A8BF3046FCF709FEE8E7F8BD08B5B5
:1059E800FEF7D2FD08BD00B9704708B5FBF7A6FF62
:0859F80008BD7047FCF78EBFEB
:085A0000E8A6FF7F0100000091
:105A0800DB4C000000000000D51A0000385A0000E6
:105A1800851F0000505A00001F540000685A0000FB
:105A2800BD1C000000000000A124000000000000D0
:105A3800145C0000345C00001C5C0000880000203E
:105A480058020020B85B0000C85B0000745C0000CE
:105A5800505C00008C000020B4020020B25B000003
:105A6800845C0000A05C00008C5C000090000020BA
:085A780008000020AC5B0000F7
:105A8000C52D00003155000000000000A94A0000AB
:105A9000685A00008551000000000000A94A00007B
:105AA00000000000A94A000000000000A94A000010
:105AB000ED3500003155000000000000A94A00004B
:105AC00000000000A94A000000000000A94A0000F0
:105AD00000000000A94A000000000000A94A0000E0
